{
  "address": "0x54d1b01Fe16Bc53e4a3112d96b0022ED8198ae2F",
  "abi": [
    {
      "inputs": [
        {
          "internalType": "address",
          "name": "priceFeedAddress",
          "type": "address"
        }
      ],
      "stateMutability": "nonpayable",
      "type": "constructor"
    },
    {
      "inputs": [],
      "name": "FundMe__NotOwner",
      "type": "error"
    },
    {
      "stateMutability": "payable",
      "type": "fallback"
    },
    {
      "inputs": [],
      "name": "MINIMUM_USD",
      "outputs": [
        {
          "internalType": "uint256",
          "name": "",
          "type": "uint256"
        }
      ],
      "stateMutability": "view",
      "type": "function"
    },
    {
      "inputs": [],
      "name": "cheapWithdraw",
      "outputs": [],
      "stateMutability": "payable",
      "type": "function"
    },
    {
      "inputs": [],
      "name": "fund",
      "outputs": [],
      "stateMutability": "payable",
      "type": "function"
    },
    {
      "inputs": [
        {
          "internalType": "address",
          "name": "funder",
          "type": "address"
        }
      ],
      "name": "getAddressToAmountFunded",
      "outputs": [
        {
          "internalType": "uint256",
          "name": "",
          "type": "uint256"
        }
      ],
      "stateMutability": "view",
      "type": "function"
    },
    {
      "inputs": [
        {
          "internalType": "uint256",
          "name": "index",
          "type": "uint256"
        }
      ],
      "name": "getFunder",
      "outputs": [
        {
          "internalType": "address",
          "name": "",
          "type": "address"
        }
      ],
      "stateMutability": "view",
      "type": "function"
    },
    {
      "inputs": [],
      "name": "getOnwer",
      "outputs": [
        {
          "internalType": "address",
          "name": "",
          "type": "address"
        }
      ],
      "stateMutability": "view",
      "type": "function"
    },
    {
      "inputs": [],
      "name": "getPriceFeed",
      "outputs": [
        {
          "internalType": "contract AggregatorV3Interface",
          "name": "",
          "type": "address"
        }
      ],
      "stateMutability": "view",
      "type": "function"
    },
    {
      "inputs": [],
      "name": "s_priceFeed",
      "outputs": [
        {
          "internalType": "contract AggregatorV3Interface",
          "name": "",
          "type": "address"
        }
      ],
      "stateMutability": "view",
      "type": "function"
    },
    {
      "inputs": [],
      "name": "withdraw",
      "outputs": [],
      "stateMutability": "nonpayable",
      "type": "function"
    },
    {
      "stateMutability": "payable",
      "type": "receive"
    }
  ],
  "transactionHash": "0x427e56cba953da21270ac41e513207247bcded950d8aa93755c049cb5aec6518",
  "args": [
    "0x694AA1769357215DE4FAC081bf1f309aDC325306"
  ],
  "numDeployments": 4,
  "solcInputHash": "cac90791242f45610302e3d2b832174f",
  "bytecode": "0x60a060405234801561001057600080fd5b506040516111ef3803806111ef83398181016040528101906100329190610110565b3373ffffffffffffffffffffffffffffffffffffffff1660808173ffffffffffffffffffffffffffffffffffffffff168152505080600260006101000a81548173ffffffffffffffffffffffffffffffffffffffff021916908373ffffffffffffffffffffffffffffffffffffffff1602179055505061013d565b600080fd5b600073ffffffffffffffffffffffffffffffffffffffff82169050919050565b60006100dd826100b2565b9050919050565b6100ed816100d2565b81146100f857600080fd5b50565b60008151905061010a816100e4565b92915050565b600060208284031215610126576101256100ad565b5b6000610134848285016100fb565b91505092915050565b60805161108261016d6000396000818161039e0152818161058e01528181610626015261089901526110826000f3fe60806040526004361061008a5760003560e01c80636b69a592116100595780636b69a5921461012c5780639e87a5cd14610157578063b60d428814610182578063b634b8e51461018c578063d7b4750c146101b757610099565b80630343fb25146100a35780630ec3b027146100e0578063206ddccd1461010b5780633ccfd60b1461011557610099565b36610099576100976101f4565b005b6100a16101f4565b005b3480156100af57600080fd5b506100ca60048036038101906100c59190610adc565b61032e565b6040516100d79190610b22565b60405180910390f35b3480156100ec57600080fd5b506100f5610376565b6040516101029190610b9c565b60405180910390f35b61011361039c565b005b34801561012157600080fd5b5061012a610624565b005b34801561013857600080fd5b5061014161085e565b60405161014e9190610b22565b60405180910390f35b34801561016357600080fd5b5061016c61086b565b6040516101799190610b9c565b60405180910390f35b61018a6101f4565b005b34801561019857600080fd5b506101a1610895565b6040516101ae9190610bc6565b60405180910390f35b3480156101c357600080fd5b506101de60048036038101906101d99190610c0d565b6108bd565b6040516101eb9190610bc6565b60405180910390f35b6802b5e3af16b1880000610233600260009054906101000a900473ffffffffffffffffffffffffffffffffffffffff163461090590919063ffffffff16565b1015610274576040517f08c379a000000000000000000000000000000000000000000000000000000000815260040161026b90610c97565b60405180910390fd5b346000803373ffffffffffffffffffffffffffffffffffffffff1673ffffffffffffffffffffffffffffffffffffffff16815260200190815260200160002060008282546102c29190610ce6565b925050819055506001339080600181540180825580915050600190039060005260206000200160009091909190916101000a81548173ffffffffffffffffffffffffffffffffffffffff021916908373ffffffffffffffffffffffffffffffffffffffff160217905550565b60008060008373ffffffffffffffffffffffffffffffffffffffff1673ffffffffffffffffffffffffffffffffffffffff168152602001908152602001600020549050919050565b600260009054906101000a900473ffffffffffffffffffffffffffffffffffffffff1681565b7f000000000000000000000000000000000000000000000000000000000000000073ffffffffffffffffffffffffffffffffffffffff163373ffffffffffffffffffffffffffffffffffffffff1614610421576040517f579610db00000000000000000000000000000000000000000000000000000000815260040160405180910390fd5b600060018054806020026020016040519081016040528092919081815260200182805480156104a557602002820191906000526020600020905b8160009054906101000a900473ffffffffffffffffffffffffffffffffffffffff1673ffffffffffffffffffffffffffffffffffffffff168152602001906001019080831161045b575b5050505050905060005b81518110156105295760008282815181106104cd576104cc610d1a565b5b6020026020010151905060008060008373ffffffffffffffffffffffffffffffffffffffff1673ffffffffffffffffffffffffffffffffffffffff168152602001908152602001600020819055505080806001019150506104af565b50600067ffffffffffffffff81111561054557610544610d49565b5b6040519080825280602002602001820160405280156105735781602001602082028036833780820191505090505b50600190805190602001906105899291906109d2565b5060007f000000000000000000000000000000000000000000000000000000000000000073ffffffffffffffffffffffffffffffffffffffff16476040516105d090610da9565b60006040518083038185875af1925050503d806000811461060d576040519150601f19603f3d011682016040523d82523d6000602084013e610612565b606091505b505090508061062057600080fd5b5050565b7f000000000000000000000000000000000000000000000000000000000000000073ffffffffffffffffffffffffffffffffffffffff163373ffffffffffffffffffffffffffffffffffffffff16146106a9576040517f579610db00000000000000000000000000000000000000000000000000000000815260040160405180910390fd5b60005b60018054905081101561074e576000600182815481106106cf576106ce610d1a565b5b9060005260206000200160009054906101000a900473ffffffffffffffffffffffffffffffffffffffff16905060008060008373ffffffffffffffffffffffffffffffffffffffff1673ffffffffffffffffffffffffffffffffffffffff168152602001908152602001600020819055505080806001019150506106ac565b50600067ffffffffffffffff81111561076a57610769610d49565b5b6040519080825280602002602001820160405280156107985781602001602082028036833780820191505090505b50600190805190602001906107ae9291906109d2565b5060003373ffffffffffffffffffffffffffffffffffffffff16476040516107d590610da9565b60006040518083038185875af1925050503d8060008114610812576040519150601f19603f3d011682016040523d82523d6000602084013e610817565b606091505b505090508061085b576040517f08c379a000000000000000000000000000000000000000000000000000000000815260040161085290610e0a565b60405180910390fd5b50565b6802b5e3af16b188000081565b6000600260009054906101000a900473ffffffffffffffffffffffffffffffffffffffff16905090565b60007f0000000000000000000000000000000000000000000000000000000000000000905090565b6000600182815481106108d3576108d2610d1a565b5b9060005260206000200160009054906101000a900473ffffffffffffffffffffffffffffffffffffffff169050919050565b60008061091183610941565b90506000670de0b6b3a7640000858361092a9190610e2a565b6109349190610e9b565b9050809250505092915050565b6000808273ffffffffffffffffffffffffffffffffffffffff1663feaf968c6040518163ffffffff1660e01b815260040160a060405180830381865afa15801561098f573d6000803e3d6000fd5b505050506040513d601f19601f820116820180604052508101906109b39190610f59565b5050509150506402540be400816109ca9190610fd4565b915050919050565b828054828255906000526020600020908101928215610a4b579160200282015b82811115610a4a5782518260006101000a81548173ffffffffffffffffffffffffffffffffffffffff021916908373ffffffffffffffffffffffffffffffffffffffff160217905550916020019190600101906109f2565b5b509050610a589190610a5c565b5090565b5b80821115610a75576000816000905550600101610a5d565b5090565b600080fd5b600073ffffffffffffffffffffffffffffffffffffffff82169050919050565b6000610aa982610a7e565b9050919050565b610ab981610a9e565b8114610ac457600080fd5b50565b600081359050610ad681610ab0565b92915050565b600060208284031215610af257610af1610a79565b5b6000610b0084828501610ac7565b91505092915050565b6000819050919050565b610b1c81610b09565b82525050565b6000602082019050610b376000830184610b13565b92915050565b6000819050919050565b6000610b62610b5d610b5884610a7e565b610b3d565b610a7e565b9050919050565b6000610b7482610b47565b9050919050565b6000610b8682610b69565b9050919050565b610b9681610b7b565b82525050565b6000602082019050610bb16000830184610b8d565b92915050565b610bc081610a9e565b82525050565b6000602082019050610bdb6000830184610bb7565b92915050565b610bea81610b09565b8114610bf557600080fd5b50565b600081359050610c0781610be1565b92915050565b600060208284031215610c2357610c22610a79565b5b6000610c3184828501610bf8565b91505092915050565b600082825260208201905092915050565b7f596f75206e65656420746f207370656e64206d6f726520455448210000000000600082015250565b6000610c81601b83610c3a565b9150610c8c82610c4b565b602082019050919050565b60006020820190508181036000830152610cb081610c74565b9050919050565b7f4e487b7100000000000000000000000000000000000000000000000000000000600052601160045260246000fd5b6000610cf182610b09565b9150610cfc83610b09565b9250828201905080821115610d1457610d13610cb7565b5b92915050565b7f4e487b7100000000000000000000000000000000000000000000000000000000600052603260045260246000fd5b7f4e487b7100000000000000000000000000000000000000000000000000000000600052604160045260246000fd5b600081905092915050565b50565b6000610d93600083610d78565b9150610d9e82610d83565b600082019050919050565b6000610db482610d86565b9150819050919050565b7f43616c6c206661696c6564000000000000000000000000000000000000000000600082015250565b6000610df4600b83610c3a565b9150610dff82610dbe565b602082019050919050565b60006020820190508181036000830152610e2381610de7565b9050919050565b6000610e3582610b09565b9150610e4083610b09565b9250828202610e4e81610b09565b91508282048414831517610e6557610e64610cb7565b5b5092915050565b7f4e487b7100000000000000000000000000000000000000000000000000000000600052601260045260246000fd5b6000610ea682610b09565b9150610eb183610b09565b925082610ec157610ec0610e6c565b5b828204905092915050565b600069ffffffffffffffffffff82169050919050565b610eeb81610ecc565b8114610ef657600080fd5b50565b600081519050610f0881610ee2565b92915050565b6000819050919050565b610f2181610f0e565b8114610f2c57600080fd5b50565b600081519050610f3e81610f18565b92915050565b600081519050610f5381610be1565b92915050565b600080600080600060a08688031215610f7557610f74610a79565b5b6000610f8388828901610ef9565b9550506020610f9488828901610f2f565b9450506040610fa588828901610f44565b9350506060610fb688828901610f44565b9250506080610fc788828901610ef9565b9150509295509295909350565b6000610fdf82610f0e565b9150610fea83610f0e565b9250828202610ff881610f0e565b91507f800000000000000000000000000000000000000000000000000000000000000084146000841216156110305761102f610cb7565b5b828205841483151761104557611044610cb7565b5b509291505056fea26469706673582212209dc5474ff69969e8b9aaa3208978680d5e84c7ca5c35dea58cde7ec4204664c164736f6c634300081c0033",
  "devdoc": {
    "author": "Abdul Ahad",
    "details": "this implements price feeds as libraries",
    "kind": "dev",
    "methods": {
      "fund()": {
        "details": "this implements price feeds as libraries"
      }
    },
    "title": "A contract for crowd funding",
    "version": 1
  },
  "userdoc": {
    "kind": "user",
    "methods": {
      "fund()": {
        "notice": "This function is to fund the contract"
      }
    },
    "notice": "This contract is to demo a sample funding contract",
    "version": 1
  },
  "storageLayout": {
    "storage": [
      {
        "astId": 324,
        "contract": "contracts/FundMe.sol:FundMe",
        "label": "s_addressToAmountFunded",
        "offset": 0,
        "slot": "0",
        "type": "t_mapping(t_address,t_uint256)"
      },
      {
        "astId": 327,
        "contract": "contracts/FundMe.sol:FundMe",
        "label": "s_funders",
        "offset": 0,
        "slot": "1",
        "type": "t_array(t_address)dyn_storage"
      },
      {
        "astId": 339,
        "contract": "contracts/FundMe.sol:FundMe",
        "label": "s_priceFeed",
        "offset": 0,
        "slot": "2",
        "type": "t_contract(AggregatorV3Interface)104"
      }
    ],
    "types": {
      "t_address": {
        "encoding": "inplace",
        "label": "address",
        "numberOfBytes": "20"
      },
      "t_array(t_address)dyn_storage": {
        "base": "t_address",
        "encoding": "dynamic_array",
        "label": "address[]",
        "numberOfBytes": "32"
      },
      "t_contract(AggregatorV3Interface)104": {
        "encoding": "inplace",
        "label": "contract AggregatorV3Interface",
        "numberOfBytes": "20"
      },
      "t_mapping(t_address,t_uint256)": {
        "encoding": "mapping",
        "key": "t_address",
        "label": "mapping(address => uint256)",
        "numberOfBytes": "32",
        "value": "t_uint256"
      },
      "t_uint256": {
        "encoding": "inplace",
        "label": "uint256",
        "numberOfBytes": "32"
      }
    }
  }
}